:100000000C942A000C943F000C943F000C943F0089
:100010000C943F000C943F000C943F000C943F0064
:100020000C943F000C943F000C943F000C943F0054
:100030000C943F000C943F000C943F000C943F0044
:100040000C943F000C943F000C943F000C943F0034
:100050000C943F0011241FBECFE5D8E0DEBFCDBF1A
:1000600010E0A0E6B0E0EAE1F3E002C005900D92F6
:10007000AA38B107D9F70E945C000C948B010C944C
:1000800000001BBA1ABA18BA8FEF87BB15BA14BA98
:1000900012BA11BA089516B880E687B987E886B90A
:1000A00080E886B9089515B88770806687B9369A52
:1000B0003699FECF85B108951F93CF93DF930E94A9
:1000C00041000E9441018FB780688FBF16B880E65B
:1000D00087B987E886B980E886B981E00E9479010E
:1000E00080E060E670E00E94FF00C0E9D1E080E0BF
:1000F0000E945300182F89E0612F0E9412011635CB
:1001000020F080E16AE670E003C080E167E770E01C
:100110000E94FF0084EF91E0FE013197F1F7019713
:10012000D9F789E064E870E00E94FF00E0CFC29A4E
:1001300082E08A95F1F7C298089587B38F7087BBE4
:10014000C098C19AC29AB799FECF82E08A95F1F71A
:10015000C298089597B3906F97BB98B39C7F98BB54
:1001600098B3906F98BB28B3982F9F60922398BB49
:10017000C29A22E0922F9A95F1F7C29898B3906FA5
:1001800098BB98B38295807F8F60982398BBC29A62
:100190002A95F1F7C2980E949D000895C29A97B3DC
:1001A000906F97BBC198C09A98B3906F98BB28B3D3
:1001B000982F9F60922398BBC29A22E0922F9A9523
:1001C000F1F7C29898B3906F98BB98B38295807FEF
:1001D0008F60982398BBC29A2A95F1F7C2980E9423
:1001E0009D0008951F93162F803108F0805D806870
:1001F0000E94AA00812F0E94CE001F910895CF93E4
:10020000DF93EB01803108F0805D80680E94AA00D6
:1002100003C021960E94CE0088818823D1F7DF9108
:10022000CF9108951F93162F803108F0805D80686C
:100230000E94AA00812F64E60E947F01282F812F4F
:100240000E947F01192F2063203319F0822F0E9412
:10025000CE00812F6AE00E947F0180630E94CE0061
:10026000812F6AE00E947F01892F80630E94CE0067
:100270001F910895803108F0805D80680E94AA0077
:100280000895C09880E69AEE0197F1F780E388BB65
:10029000C29A92E0292F2A95F1F7C298E0E9F1E09D
:1002A0003197F1F788BBC29A892F8A95F1F7C298E6
:1002B00025ED822F8A95F1F780E288BBC29A9A9544
:1002C000F1F7C2982A95F1F788E20E94AA0081E02E
:1002D0000E94AA0080EA99E10197F1F786E00E9466
:1002E000AA008CE00E94AA00089581E00E94AA0062
:1002F0000895882311F0C39A0895C3980895991B0F
:1003000079E004C0991F961708F0961B881F7A950C
:0A031000C9F780950895F894FFCF17
:10031A004144432076616C3A200044616E676572FD
:10032A0021203E2038350020202020202020202097
:0A033A0020202000202020202000B9
:00000001FF
